:1000000012C0189518951895189518951895189563
:100010001895189518951895189518951895189578
:100020001895189518958FED8DBFC8EBE0EA4E2E08
:10003000DD275D2EA89584B7082E877F84BF88E1D1
:10004000992781BD91BDEEE7F0E0A0E6B0E08827FA
:100050008D933197E9F7662480E081BB8FEF87BBF2
:1000600074B7777F74BF8EE181BD86E081BDE0E02B
:10007000F0E0A0E745D3A0E70D911C91003050E0DF
:1000800015070CF401C005C082ED94E0A0E78D9344
:100090009C938FEF8093610070E078BB81B588609E
:1000A00081BD00916300003081E009F080E08F9312
:1000B000A5E70D911C91003050E0150781E009F093
:1000C00080E09F9189238F93009161000F3F81E031
:1000D00009F080E09F918923882309F45FC0009193
:1000E0006200003009F016C0C09A859B03C08AE008
:1000F00080936100849B03C087E080936100839BB1
:1001000003C084E080936100829B03C081E0809300
:100110006100C09800916200013009F016C0C19AD8
:10012000859B03C080E080936100849B03C088E0CE
:1001300080936100839B03C085E080936100829B74
:1001400003C082E080936100C19800916200023098
:1001500009F016C0C29A859B03C08BE080936100B2
:10016000849B03C089E080936100839B03C086E089
:1001700080936100829B03C083E080936100C298FA
:10018000A2E68C918F5F8C9300916200023010F098
:1001900009F001C003C080E080936200C09AC19A58
:1001A000C29AA0E30C9102FB81E00EF480E08F93F1
:1001B000A0E30C9103FB81E00EF480E09F91892382
:1001C0008F93A0E30C9104FB81E00EF480E09F91FB
:1001D00089238F93A0E30C9105FB81E00EF480E06E
:1001E0009F918923882309F403C080E080936300F2
:1001F000C098C198C298009161000F3F09F4E6C011
:1002000081E08093630000916A00003009F01EC015
:10021000A1E68C91A4E68D9388278C93A4E60D919A
:100220001C9148EE53E008D2A4E60D931C93A4E67B
:100230000D911C91AEE64D915C91040F151FAEE639
:100240000D931C9384E080936D00B9C0013009F0D8
:100250001EC0A1E68C91A6E68D9388278C93A6E616
:100260000D911C9144E650E0E7D1A6E60D931C9356
:10027000A6E60D911C91AEE64D915C91040F151F01
:10028000AEE60D931C9384E080936D0098C002301D
:1002900009F018C08091610080936800A8E60C9175
:1002A0004AE036D24C93A8E60D911127AEE64D9167
:1002B0005C91040F151FAEE60D931C9384E08093B0
:1002C0006D007DC0033009F013C080916100809300
:1002D0006900A9E60D911127AEE64D915C91040FDE
:1002E000151FAEE60D931C9384E080936D0067C0EC
:1002F000043009F064C000917700013009F01FC09C
:10030000009161000B3009F00FC0AEE68D919C9119
:10031000A0E78D939C93E0E0F0E0A0E77BE7DFD1DE
:100320008CE380936C0003C08EE180936B008FEFB1
:100330008093610080E08093770063D1B2CEA0E724
:100340004D915C91AEE60D911C910417150709F0D3
:1003500027C080E08093780000916100003009F0B0
:1003600007C081E08093770088E280936D0017C01A
:100370000A3009F007C084E18093720084E1809321
:100380006C000DC00B3009F007C084E1809373004E
:1003900088E280936C0003C08EE180936B0007C0FD
:1003A0008EE180936B00A8E78C918F5F8C9380E047
:1003B000809374008FEF8093610023D172CEAAE600
:1003C0008C918F5F8C938FEF8093610000916A0016
:1003D000003080E010F009F081E08F93009174000C
:1003E000003081E009F080E09F918923882309F49F
:1003F00003C089EC8093740000917400003010F009
:1004000009F001C004C0A4E78C9181508C93009145
:100410007400013081E009F080E08F9300916A0060
:10042000003081E009F480E09F918923882309F45A
:1004300007C0E7D08FEF809361008EE180936B005F
:1004400000917800033080E010F009F081E08F9394
:10045000A5E70D911C91003050E0150781E009F0EF
:1004600080E09F918923882309F408C080EB94E001
:10047000A5E78D939C9380E080937800A5E70D918C
:100480001C91003050E0150780E014F009F081E085
:100490008F9300916B00003081E009F080E09F9124
:1004A0008923882309F403C084E080936B00A5E7C7
:1004B0000D911C91003050E0150714F009F001C0B7
:1004C00008C0A5E70D911C9101501040A5E70D93C0
:1004D0001C9300916D00003010F009F001C00BC0BA
:1004E00080916D0080936C0080916D0080936B0013
:1004F00080E080936D0000916C00023010F009F0F4
:1005000001C001C0C59A00916C00023009F001C021
:10051000C59800916C00003010F009F001C004C0D3
:10052000ACE68C9181508C9300916B00023010F0FE
:1005300009F001C001C0C69A00916B00023009F0B9
:1005400001C0C69800916B00003010F009F001C0A6
:1005500004C0ABE68C9181508C9300917200043101
:1005600009F001C0C39A00917200013009F001C086
:10057000C39800917200003010F009F001C004C06F
:10058000A2E78C9181508C9300917300043109F0A3
:1005900001C0C49A00917300013009F001C0C498F1
:1005A00000917300003010F009F001C004C0A3E70F
:1005B0008C9181508C9300916000003010F009F014
:1005C00001C004C0A0E68C9181508C930091600022
:1005D0000C3009F001C0C79A00916000013009F0A9
:1005E00001C0C79800916000003009F003C089E2A3
:1005F00080936000A89582E390E05BD052CDF894A0
:10060000FFCF80E080936A0080E090E0AEE68D93BB
:100610009C9380E090E0A4E68D939C9380E090E032
:10062000A6E68D939C9380E08093680080E08093A1
:1006300069000895F894FFCF04D01FD000FC0CD0BF
:1006400008950024E89457FF02C009D0689400F888
:100650000BD010F80124089502D009D008955095C8
:1006600040954F5F5F4F0895E89417FF08950095F8
:1006700010950F5F1F4F68940895752F642F5527AD
:100680004427FF93F1E1889405C010F4460F571FEB
:100690005695479517950795FA95B9F7FF910895DF
:1006A0003197F1F70895689462F80895E89462F834
:1006B0000895EF93FF93EE27E82BE92B31F0E0ED5F
:1006C000F7E03197F1F70197D1F7FF91EF91089596
:1006D000E199FECFEEBB3196089591E001C092E022
:1006E0007B3751F47FB7F894F3DF8D918DBBE29A9D
:1006F000E19A9A95C9F77FBF7727089591E001C0E5
:1007000092E0E6DFE09A8DB38D939A95D1F7089544
:10071000FF935527F8E0469508F4500F57954795F5
:08072000FA95D1F7FF9108954D
:00000001FF
